:020000040800F2
:10000000A0AF002015020008C515000871080008FF
:10001000C11500086D0500084B1E00080000000017
:10002000000000000000000000000000C5190008EA
:1000300071050008000000004D160008D91A0008DC
:100040002F0200082F0200082F0200082F020008CC
:100050002F0200082F0200082F0200082F020008BC
:100060002F0200082F0200082F0200082F020008AC
:100070002F0200082F0200082F0200082F0200089C
:100080002F0200082F0200082F0200082F0200088C
:100090002F0200082F0200082F0200082F0200087C
:1000A0002F0200082F0200082F0200082F0200086C
:1000B0002F0200082F0200082F0200082F0200085C
:1000C0002F0200082F0200082F0200082F0200084C
:1000D0002F020008851B0008511C0008751C000831
:1000E0002F0200082F0200082F0200082F0200082C
:1000F0002F0200082F0200082F0200082F0200081C
:100100002F0200082F0200082F0200082F0200080B
:100110003D1B0008611B00082F0200082F02000889
:100120002F0200082F0200082F0200082F020008EB
:1001300000F002F800F05FF80AA090E8000C82449A
:100140008344AAF10107DA4501D100F054F8AFF277
:10015000090EBAE80F0013F0010F18BFFB1A43F0A5
:1001600001031847244E0000444E00000A444FF09B
:10017000000C10F8013B13F0070408BF10F8014B06
:100180001D1108BF10F8015B641E05D010F8016B4B
:10019000641E01F8016BF9D113F0080F1EBF10F8AF
:1001A000014BAD1C0C1B09D16D1E58BF01F801CBD2
:1001B000FAD505E014F8016B01F8016B6D1EF9D555
:1001C0009142D6D37047000000230024002500266A
:1001D000103A28BF78C1FBD8520728BF30C148BFAA
:1001E0000B607047642900F07780002070471FB5CE
:1001F0001FBD10B510BD00F071F91146FFF7F7FFF4
:1002000002F08AFB00F08FF903B4FFF7F2FF03BCA2
:1002100001F0B8FE0948804709480047FEE7FEE7BD
:10022000FEE7FEE7FEE7FEE7FEE7FEE7FEE7FEE7A6
:1002300004480549054A064B70470000DD1A0008CE
:1002400031010008A0A90020A0AF0020A0AB002031
:10025000A0AB0020704700000FB4044910B503AAFA
:10026000029800F005F910BC5DF814FB640300204F
:100270002DE9F0410E460446002020622046E16848
:10028000884730B3252805D0D4E901219047206A5A
:10029000401CF2E7E168204600278847050018D097
:1002A000A5F14100192802D820354FF400673246E5
:1002B000294620462760FFF795FF40B1012804D06A
:1002C000F61D26F007060836D8E7361DD6E728467D
:1002D000DAE7206ABDE8F0812DE9F0410646002406
:1002E00010687529314616A510D0AFF3008000289C
:1002F00002DA404213A507E031688A0701D512A54A
:1003000002E0490704D511A5012401E0AFF3008004
:1003100000210A2206F1240709E0B0FBF2FCB0FB41
:10032000F2F302FB1C00303078541846491C0028B8
:10033000F3D123462A463046BDE8F04100F03EB8EE
:10034000000000002D0000002B0000002000000035
:100350004FF0000200B5134694469646203922BF5E
:10036000A0E80C50A0E80C50B1F12001BFF4F7AFA9
:10037000090728BFA0E80C5048BF0CC05DF804EB8B
:10038000890028BF40F8042B08BF704748BF20F8F9
:10039000022B11F0804F18BF00F8012B70477047F7
:1003A00070477047704710B500F074F8006810BDD2
:1003B00010B5044600F06EF8046010BD2DE9F0475A
:1003C0000D4699469246044600F1240801688806C5
:1003D00004D5E06921F01001216000E00120A8426D
:1003E00001DD471B00E00027A1697A1902EB090033
:1003F000081AA0612078C00602D42046AFF300801E
:10040000002608E0D4E901211AF806009047206A86
:10041000401C761C20624E45F4DB2078C0060AD5CD
:100420002046AFF3008006E0D4E901213020904758
:10043000206A401C2062381EA7F10107F4DC07E0A7
:10044000D4E9012118F805009047206A401C206279
:10045000281EA5F10105F3DC2046AFF300802078CB
:10046000000602D50220BDE8F0870120FBE700006E
:10047000074B70B50D467B4400F015F8044628463E
:1004800000F024F810B14FF0FF3070BD204670BD71
:100490000F2300000048704740A9002001694A1C52
:1004A00002610878704700B58FB0CDE901310021B5
:1004B000059105497944CDE9031011466846FFF7D7
:1004C000D7FE0FB000BD0000E5FFFFFF007B00F08E
:1004D000800070470048704740A900207546FFF72C
:1004E000F9FFAE4605006946534620F007008546F1
:1004F00018B020B5FFF79CFEBDE820404FF0000685
:100500004FF000074FF000084FF0000B21F00701FB
:10051000AC46ACE8C009ACE8C009ACE8C009ACE83E
:10052000C0098D46704710B50446AFF300802046E1
:10053000BDE81040FFF768BE08B50121082001F0B2
:1005400097F80020074908602020ADF8000010202F
:100550008DF8030003208DF802006946024800F080
:10056000F8F808BD94812142000C014000BFFEE76D
:10057000704770B50546012D06D0022D0AD0032D17
:100580000ED0042D18D111E00121002001F0EAF86D
:10059000044611E00321022001F0E4F804460BE0D8
:1005A0000521042001F0DEF8044605E007210620BD
:1005B00001F0D8F8044600BF00BF204670BD70B5FA
:1005C0000546012D06D0022D0FD0032D18D0042D85
:1005D0002CD120E0002001F02EF9C0F30B04012003
:1005E00001F029F940EA044421E0022001F023F956
:1005F000C0F30B04032001F01EF940EA044416E0A6
:10060000042001F018F9C0F30B04052001F013F9E0
:1006100040EA04440BE0062001F00DF9C0F30B049E
:10062000072001F008F940EA044400E000BF00BFE1
:1006300024F07044204670BD51B18200A2F1C04246
:10064000126842F001038200A2F1C042136009E087
:100650008200A2F1C0421268034B1A408300A3F14A
:10066000C0431A6070470000FEFF0F00D0E901127E
:100670001143C268114302691143426911438269FF
:100680001143C2691143026A1143426A1143826AEB
:100690001143C26A1143026B114302689200A2F136
:1006A000C0421160816808290BD101688900A1F15D
:1006B000C041096841F0400201688900A1F1C041D0
:1006C0000A60416B0968426B526841EA0211426B51
:1006D000926841EA0221426B928941EA0241426BEF
:1006E000128A41EA0251426B127D41EA0261426B79
:1006F000926911430268521C9200A2F1C04211603B
:10070000C16AB1F5804F1BD1816B0968826B526859
:1007100041EA0211826B926841EA0221826B128ADD
:1007200041EA0251826B127D41EA0261826B926959
:10073000114302689200A2F1C042C2F8041107E01E
:100740006FF0704201688900A1F1C041C1F8042135
:1007500070472DE9F04102460025002600200023C5
:100760000024002791F803C00CF00F0591F803C096
:100770000CF0100CBCF1000F03D091F802C04CEA51
:10078000050591F800C0BCF1000F31D014680020BD
:100790002BE04FF0010C0CFA00F3B1F800C00CEAAA
:1007A00003069E4220D183004FF00F0C0CFA03F792
:1007B000BC4305FA03FC4CEA040491F803C0BCF105
:1007C000280F06D14FF0010C0CFA00FCC2F814C03F
:1007D0000AE091F803C0BCF1480F05D14FF0010CBD
:1007E0000CFA00FCC2F810C0401C0828D1D31460D9
:1007F000B1F800C0BCF1FF0F34DD546800202EE0DA
:1008000000F1080C4FF0010808FA0CF3B1F800C031
:100810000CEA03069E4221D183004FF00F0C0CFA24
:1008200003F7BC4305FA03FC4CEA040491F803C047
:10083000BCF1280F05D100F1080C08FA0CF8C2F839
:10084000148091F803C0BCF1480F07D100F1080CE7
:100850004FF0010808FA0CF8C2F81080401C082874
:10086000CED35460BDE8F08101617047C16070472C
:1008700000BFFEE710B500200F4908600F48006870
:1008800020F470400D4908600846006840F440506C
:10089000086000200A49C1F8AC01022001F0E6FB23
:1008A000012005490860022001F0E0FB0020044916
:1008B000C1F8A80110BD0000A8812142040C01402C
:1008C0000080214208B50121082000F0D1FE4FF43C
:1008D0004060ADF8000010208DF8030003208DF873
:1008E000020069460448FFF734FF4FF440610248B4
:1008F000FFF7BAFF08BD0000000C014010B5002052
:100900000F4908600F48006820F470400D490860E6
:100910000846006840F44050086001200A49C1F8C8
:10092000AC01022001F0A2FB012005490860022071
:1009300001F09CFB00200449C1F8A80110BD000093
:10094000A8812142040C01400080214270B5054677
:1009500000241A48006820F47040184908600846CE
:10096000006840F40040086000261CE000201449A4
:100970000860022001F07AFB01201249C1F8A801A9
:100980006006040E0E487C38006808B1601CC4B2D2
:10099000022001F06BFB002009490860022001F0F1
:1009A00065FB701CC6B2082EE0DB15B9FFF7A6FF89
:1009B00001E0FFF75FFF204670BD0000040C01401E
:1009C000A88121420080214270B50546194800687F
:1009D00020F47040174908600846006840F4405011
:1009E000086000201449086000241FE005FA04F0A4
:1009F00000F0800020B101200F49091D086003E0CC
:100A000000200D49091D0860022001F02FFB012084
:100A100009490860022001F029FB00200749C1F8BC
:100A2000A801022001F022FB601CC4B2082CDDDB0F
:100A300070BD0000040C0140A881214200802142C9
:100A400010B50F48006820F470400D490860084652
:100A5000006840F44050086001200A4908600A49D3
:100A6000C1F8A801022001F001FB0020054908603F
:100A7000022001F0FBFA00200349C1F8A80110BDD3
:100A8000040C0140AC8121420080214210B50F4886
:100A9000006820F470400D4908600846006840F482
:100AA0004050086000200A4908600A49C1F8AC01BA
:100AB000022001F0DBFA0120054908600549C1F870
:100AC000AC01022001F0D2FA10BD0000040C01407C
:100AD000A88121420080214210B5002414480068FA
:100AE00020F47040124908600846006840F4004055
:100AF000086001200F49086001F0B8FA01200E4992
:100B0000C1F8A80101F0B2FA07E0601CC4B2FA2CE7
:100B100003DDFFF7BBFF012010BD064880380068E9
:100B20000028F2D10349091F086000BFF4E7000064
:100B3000040C0140AC8121420080214210B540F2FA
:100B4000D641082001F083F940F2D641092001F096
:100B50007EF940F2D6410A2001F079F940F2D641FF
:100B60000B2001F074F94FF470610C2001F06FF963
:100B70004FF470610D2001F06AF94FF470610E209E
:100B800001F065F94FF470610F2001F060F90A215E
:100B9000102001F05CF90A21112001F058F90A2116
:100BA000122001F054F90A21132001F050F942F209
:100BB0000201142001F04BF942F20201152001F06C
:100BC00046F942F20201162001F041F942F2020117
:100BD000172001F03CF90021192001F038F94CF2FE
:100BE0000D211B2001F033F94FF410411E2001F0BC
:100BF0002EF94FF410411F2001F029F94FF4104154
:100C0000202001F024F94FF41041212001F01FF9B8
:100C100041F681411A2001F01AF910BD08B50121F1
:100C2000082000F025FD0121102000F021FD4FF4E7
:100C30008050ADF8000048208DF8030069460F4849
:100C4000FFF787FD0F20ADF8000010208DF803009E
:100C500003208DF8020069460948FFF77AFDF0206D
:100C6000ADF8000028208DF8030003208DF8020065
:100C700069460348FFF76DFD08BD0000000C014008
:100C80000010014010B504460E48007880B90E48A7
:100C9000006800F4805098B90A2001F0C1F90A48B0
:100CA000006800F4805058B901200649087010BD52
:100CB0000548006800F4805010B100200149087018
:100CC0000020F4E76C030020080C014070B50446D6
:100CD000002609480588408845430021084600F061
:100CE00003FB00F035FC00BF02E004480480761CE2
:100CF000AE42FAD370BD000030A900200008006C9D
:100D000010B504468CB9002011498871F020088084
:100D10004FF4A07048802C2008812A2048812B2085
:100D20008881002000F066FA10E0012008498871EF
:100D30004FF4A0700880F02048802C2008812A20E1
:100D400048812B208881052000F054FA10BD000056
:100D500030A9002010B503460C460D49488900F023
:100D6000F1FB181200F0E8FBD8B200F0E5FB0849EF
:100D7000888900F0E7FB201200F0DEFBE0B200F013
:100D8000DBFB0348008903490880881C028010BDF2
:100D900030A90020FE07006C2DE9F04F05460E46F5
:100DA00017469846DDF824A04FF0000B781B401C36
:100DB0001FFA80FB344613E02146284600F094FADF
:100DC00000F0C6FB4FF0000906E00748A0F800A0BD
:100DD00009F101001FFA80F9D945F6DB601C84B2E5
:100DE0004445E9DDBDE8F08F0008006C00B59FB018
:100DF0000121080200F02CFC01214FF4B47000F036
:100E000037FC0120ADF8780010208DF87B0003201E
:100E10008DF87A001EA9E048FFF79BFC4CF2337076
:100E2000ADF8780018208DF87B0003208DF87A004B
:100E30001EA9DA48FFF78DFC4FF68070ADF87800F8
:100E400018208DF87B0003208DF87A001EA9D44865
:100E5000FFF77FFC41F20100ADF8780018208DF813
:100E60007B0003208DF87A001EA9CE48FFF771FCA5
:100E700001200890002009900F200A9000200B907C
:100E80000C900D900E900190029003200390002092
:100E9000049005900690079006200F900020109077
:100EA000119010201290002013901590149016901D
:100EB00017904FF480501890002019904FF4804004
:100EC0001A9000201B9008A81C9001A81D900FA844
:100ED000FFF7CCFB01210620FFF7AEFB322001F02B
:100EE0009FF8002000F07AF9AF4988800846808892
:100EF000FF280ADB084680884FF6FF71884204D03D
:100F0000A9488088B0F5134F1DD1D32000F01AFBFB
:100F100000F05AF9A449888000F056F9A249888067
:100F200000F052F9A0498880084680884FF6FF718A
:100F300001EA00209C49888000F046F99A49898896
:100F40000843994988809848808849F2413188420D
:100F50007ED1CF2000F0F6FA002000F0EDFAC1209B
:100F600000F0EAFA302000F0E7FAED2000F0EAFAAB
:100F7000642000F0E1FA032000F0DEFA122000F015
:100F8000DBFA812000F0D8FAE82000F0DBFA8520B7
:100F900000F0D2FA102000F0CFFA7A2000F0CCFA5C
:100FA000CB2000F0CFFA392000F0C6FA2C2000F058
:100FB000C3FA002000F0C0FA342000F0BDFA02208D
:100FC00000F0BAFAF72000F0BDFA202000F0B4FAE1
:100FD000EA2000F0B7FA002000F0AEFA002000F09E
:100FE000ABFAC02000F0AEFA1B2000F0A5FAC12039
:100FF00000F0A8FA012000F09FFAC52000F0A2FA44
:10100000302000F099FA302000F096FAC72000F066
:1010100099FAB72000F090FA362000F093FA4820B1
:1010200000F08AFA3A2000F08DFA552000F084FA98
:10103000B12000F087FA002000F07EFA1A2000F0BC
:101040007BFAB62000F07EFA0A2000F075FA00E084
:1010500095E0A22000F070FAF22000F073FA002070
:1010600000F06AFA262000F06DFA012000F064FA20
:10107000E02000F067FA0F2000F05EFA2A2000F06E
:101080005BFA282000F058FA082000F055FA0E20EC
:1010900000F052FA082000F04FFA542000F04CFA09
:1010A000A92000F049FA432000F046FA0A2000F097
:1010B00043FA0F2000F040FA002000F03DFA002033
:1010C00000F03AFA002000F037FA002000F034FA7D
:1010D000E12000F037FA002000F02EFA152000F091
:1010E0002BFA172000F028FA072000F025FA11202B
:1010F00000F022FA062000F01FFA2B2000F01CFA64
:10110000562000F019FA3C2000F016FA052000F0F5
:1011100013FA102000F010FA0F2000F00DFA3F2013
:1011200000F00AFA3F2000F007FA0F2000F004FA5E
:101130002B2000F007FA002000F0FEF9002000F05C
:10114000FBF9012000F0F8F93F2000F0F5F92A2022
:1011500000F0F8F9002000F0EFF9002000F0ECF9C1
:10116000002000F0E9F9EF2000F0E6F9112000F08E
:10117000E9F9782000F054FF292000F0E3F900207D
:10118000FFF7BEFD0120094908604FF6FF70FFF729
:101190009DFD1FB000BD0000000C01400014014087
:1011A000001801400020014030A900208081214228
:1011B00010B50246012000E050430B1EA1F10104CE
:1011C000E1B2F9D110BD000008B5034800880090D5
:1011D000BDF8000008BD00000008006C10B5044612
:1011E000204600F0AFF9052000F040FFFFF7ECFFCC
:1011F00010BD000070B5054600230026082D1CD246
:10120000DFE805F00406090C0F12151800BF14E002
:1012100043F0800311E043F040030EE043F0C003CD
:101220000BE043F0200308E043F0600305E043F0E7
:10123000A00302E043F0E00300BF00BF362643F006
:1012400008031946304600F08DF903F0200068B11C
:101250002448008823494988884214DA21480488B0
:10126000408820490880084644800CE01D480088DA
:101270001C494988884206DD1A4804884088194973
:101280000880084644801749488900F05BF900202F
:1012900000F052F9002000F04FF912490988491E68
:1012A000C1F30F2000F048F90E490978491EC8B271
:1012B00000F042F90B49888900F044F9002000F061
:1012C0003BF9002000F038F906494988491EC1F36E
:1012D0000F2000F031F903498978491EC8B200F0A7
:1012E0002BF970BD30A9002000B502460B460A4913
:1012F000488900F027F9101200F01EF9D0B200F072
:101300001BF90549888900F01DF9181200F014F93D
:10131000D8B200F011F900BD30A900202DE9FC4F32
:1013200081460D4616461C4601952046E31704EB00
:101330005373DB1021464FEAE47C04EB5C7C4FEAFC
:10134000EC0CA4EBCC0CBCF1000F02D04FF0010C64
:1013500001E04FF0000C6344224604EBD27C4FEADC
:101360006C0C03FB0CF3DBB20093A6F12000C6B2B9
:101370000C2C05D106EB46002A4901EB80080FE052
:10138000102C03D1284800EB061809E0182C05D1D1
:1013900006EBC600254901EB800801E0BDE8FC8FA3
:1013A00000273AE018F807A04FF0000B2FE00AF0F2
:1013B000800030B11E48028829464846FFF7CAFC23
:1013C00007E00B9828B91B48028829464846FFF7D2
:1013D000C1FC4FEA4A604FEA106A681C85B21648A1
:1013E0004088A84200DCD9E70198281AA0420AD117
:1013F000019D09F101001FFA80F90F480088484556
:1014000000DCCBE706E00BF1010000F0FF0BBBF1C5
:10141000080FCCDB00BF781CC7B200988742C1DB45
:1014200000BFBBE76C370008E03B0008D041000874
:10143000680300206A03002030A900202DE9FF4F37
:1014400081B0074691461E460E9D4FF0000A0024CB
:1014500039E0301B401EC1B20A20FFF7A9FEB9FBDC
:10146000F0F00A21B0FBF1F201FB1208BAF1000F13
:1014700016D1701EA04213DDB8F1000F0ED100206E
:10148000AB4605EBDB71491001FB0471009088B29B
:101490002B4620220299FFF741FF12E04FF0010A8C
:1014A0000020AB4605EBDB71491001FB0471009095
:1014B00088B208F13001CAB22B460299FFF72EFF1D
:1014C00000BF601CC4B2B442C3DB05B0BDE8F08FFE
:1014D0002DE9F84704460D4690469946DDE909672F
:1014E00004F0FF0A08EB04001FFA80F809EB05007E
:1014F0001FFA80F916E0444502DB5446A81985B26C
:101500004D4500DB14E0002000903A783346294630
:101510002046FFF703FF304606EBD07104EB610174
:101520008CB27F1C38787E2802DC38782028E2DAFA
:1015300000BFBDE8F887000001490880704700003F
:101540000008006C0149088070470000FE07006C2D
:1015500002480089024908807047000030A9002035
:10156000FE07006C024A1080921C11807047000038
:10157000FE07006C08B50121482000F079F8202012
:10158000ADF8000010208DF8030003208DF8020054
:1015900069460948FFF7DDF820210748FFF764F99D
:1015A0002020ADF8000069460448FFF7D2F820215A
:1015B0000248FFF759F908BD000C0140001801402E
:1015C00000BFFEE77047000070B5002100230F2226
:1015D000C47804B3154C246804F4E064C4F5E064F2
:1015E000210AC1F10403CA40447804FA03F1847863
:1015F0001440214309010E4C0678A155047804F0EB
:101600001F050124AC4005786D11AD0005F1E02502
:10161000C5F8004109E0047804F01F050124AC403E
:10162000044D0678761145F8264070BD0CED00E0BB
:1016300000E400E080E100E002490143024A116059
:10164000704700000000FA050CED00E07047000054
:1016500029B1064A52690243044B5A6104E0034A25
:1016600052698243014B5A617047000000100240EA
:1016700029B1064A92690243044B9A6104E0034A85
:1016800092698243014B9A6170470000001002404A
:1016900030B500210022002400232D4D6D6805F097
:1016A0000C0121B1042905D0082923D105E0294DD9
:1016B000056022E0274D05601FE0254D6D6805F4AB
:1016C0007012234D6D6805F48034022505EB9242BB
:1016D0001CB9214D554305600BE01D4D6D6805F4A7
:1016E00000351DB11C4D5543056002E0194D5543B1
:1016F000056002E0174D056000BF00BF144D6D6826
:1017000005F0F0010909154D6B5C0568DD40456089
:101710000F4D6D6805F4E061090A104D6B5C45687A
:10172000DD4085600A4D6D6805F46051C90A0B4DB6
:101730006B5C4568DD40C560054D6D6805F4404152
:10174000890B074D6B5CC568B5FBF3F5056130BDD2
:101750000010024000127A0000093D0074030020CE
:1017600084030020F8B505460C46FFF769F95420BC
:10177000FFF72AF9FFF7B0F92846FFF725F9FFF739
:10178000ABF9FFF783F9FFF75BF95520FFF71CF979
:10179000FFF7A2F90120FFF7D9F88DF800009DF8B6
:1017A00000000007000E8DF800009DF800000011F9
:1017B0008DF80000FFF75EF80120FFF7C7F88DF8FD
:1017C0000100FFF757F8FFF761F9FFF739F95420E7
:1017D000FFF7FAF8FFF780F92046FFF7F5F8FFF773
:1017E0007BF9FFF753F9FFF72BF95520FFF7ECF8DA
:1017F000FFF772F90120FFF7A9F88DF80200FFF753
:1018000039F80120FFF7A2F88DF80300FFF732F84E
:10181000FFF73CF99DF8000000069DF8011040EA32
:1018200001409DF8021040EA01209DF8031040EAB3
:1018300001063046F8BD2DE9F0410446FFF700F9F6
:101840005420FFF7C1F8FFF747F92046FFF7BCF82F
:10185000FFF742F9FFF7F4F85520FFF7B5F8FFF767
:101860003BF90120FFF772F806460020FFF76EF8FB
:10187000074607EB062085B2FFF708F92846BDE8C2
:10188000F081000010B500244D48C0684FF6F0729A
:10189000104040F00F014A48FEF7E8FF48488068D2
:1018A00000F0F00008B9601E10BD642000F0B8FB25
:1018B0004348806800F0F00010B94FF0FF30F3E7C4
:1018C0003F48C0684FF6F0721040411C3C48FEF79C
:1018D000CDFF3B48806800F0F000102806D020289B
:1018E00006D0402806D0802808D105E00D2405E068
:1018F0000C2403E00B2401E00A2400BF00BF3048A1
:10190000C0684FF6F0721040811C2D48FEF7AEFF04
:101910002B48806800F0F000102806D0202806D060
:10192000402806D0802808D105E00F2405E00924CE
:1019300003E0062401E0032400BF00BF2048C06884
:101940004FF6F0721040011D1D48FEF78FFF1C4836
:10195000806800F0F000102806D0202806D040282B
:1019600006D0802808D105E0002405E0082403E023
:10197000052401E0022400BF00BF1148C0684FF6F3
:10198000F072104040F008010D48FEF76FFF0C4860
:10199000806800F0F000102806D0202806D04028EB
:1019A00006D0802808D105E00E2405E0072403E0D6
:1019B000042401E0012400BF00BF204674E70000BA
:1019C00000100140704710B500F002F810BD000093
:1019D0000CB50020019000903348006840F480303E
:1019E0003149086000BF3048006800F400300090C2
:1019F0000198401C0190009818B90198B0F5A06FAB
:101A0000F1D12948006800F4003010B101200090A5
:101A100001E0002000900098012843D1234800688D
:101A200040F01000214908600846006820F00300DB
:101A300008600846006840F0020008601A484068E4
:101A4000194948600846406848600846406840F4C4
:101A5000806048600846406820F47C104860084672
:101A6000406840F4E81048600846006840F0807024
:101A7000086000BF0C48006800F000700028F9D032
:101A80000948406820F0030007494860084640685C
:101A900040F00200486000BF0348406800F00C00BE
:101AA0000828F9D10CBD00000010024000200240BF
:101AB000042808D14FF0E021096941F004014FF0FA
:101AC000E022116107E04FF0E021096921F00401F3
:101AD0004FF0E022116170477047000010B51348C5
:101AE000006840F00100114908600846406810494C
:101AF00008400E494860084600680E4908400B49F6
:101B000008600846006820F48020086008464068A5
:101B100020F4FE0048604FF41F008860FFF753FF79
:101B20004FF000600449086010BD00000010024042
:101B30000000FFF8FFFFF6FE08ED00E010B540F2F0
:101B40002551064800F0BDF838B1044800F074F99A
:101B5000C4B22146014800F074F910BD004C0040A9
:101B600010B540F22551064800F0ABF838B10448F2
:101B700000F062F9C4B22146014800F062F910BDDC
:101B80000050004010B540F22551064800F099F889
:101B900038B1044800F050F9C4B22146014800F0C1
:101BA00050F910BD0038014010B586B0044601213F
:101BB00044F20400FFF75CFD4FF40070ADF8140030
:101BC00003208DF8160018208DF8170005A91E486F
:101BD000FEF7BFFD4FF48060ADF8140004208DF8CF
:101BE000170005A91848FEF7B4FD01940020ADF8D0
:101BF0000800ADF80A00ADF80C00ADF810000C209C
:101C0000ADF80E0001A9114800F0AAF825208DF8C2
:101C1000000003208DF801008DF8020001208DF8EE
:101C200003006846FFF7D0FC4021084800F034F874
:101C3000012240F22551054800F06DF801210348CA
:101C400000F033F806B010BD000801400038014034
:101C500010B540F22551064800F033F838B1044879
:101C600000F0EAF8C4B22146014800F0EAF810BDDD
:101C70000044004010B540F22551064800F021F81C
:101C800038B1044800F0D8F8C4B22146014800F049
:101C9000D8F810BD0048004001F40072B2F5007F92
:101CA00000D100BFCA430280704721B1828942F44B
:101CB0000052828104E082894DF6FF731A408281CE
:101CC000704770B50246002400230025002040F62E
:101CD0006A16B14200D100BFC1F3421501F01F03E3
:101CE000012606FA03F3012D02D19689334006E05E
:101CF000022D02D1168A334001E0968A33400C123D
:101D0000012606FA04F41688344013B10CB1012000
:101D100000E0002070BDF0B5034600240026002539
:101D2000002040F66A17B94200D100BF1846C1F33F
:101D3000421401F01F06012707FA06F5012C01D114
:101D40000C3004E0022C01D1103000E014301AB144
:101D500007682F43076002E00768AF430760F0BDE4
:101D60002DE9F04786B005460E460024A24600BF86
:101D7000A1460027B08900B100BF2F462C8A4CF63F
:101D8000FF700440F08804432C82AC894EF6F310B7
:101D90000440B08831890843718908430443AC8109
:101DA000AC8A4FF6FF400440B0890443AC8201A8DE
:101DB000FFF76EFC1F48874202D1DDF810A001E05A
:101DC000DDF80CA0A88900F4004040B10AEBCA007D
:101DD00000EB0A1031684900B0FBF1F807E00AEBAC
:101DE000CA0000EB0A1031688900B0FBF1F86420EA
:101DF000B8FBF0F004012009642101FB1089A889D7
:101E000000F4004040B1322000EBC900B0FBF1F01B
:101E100000F00700044308E0322000EB09106421C1
:101E2000B0FBF1F000F00F0004432C8106B0BDE8D8
:101E3000F08700000038014001468888C0F30800A0
:101E40007047C1F308028280704700BFFEE770B59B
:101E500005460C46FEF7F4FD5420FEF7B5FDFEF7EF
:101E60003BFE2846FEF7B0FDFEF736FE2012FEF7D9
:101E7000ABFDFEF731FEE0B2FEF7A6FDFEF72CFE4D
:101E8000FEF704FE0A2000F0CBF870BD490050EACE
:101E9000C12018BF04204A0D18BF40F0010040F2D5
:101EA000FF72B2EB515F08BF40F00200012808BF8B
:101EB000052070472DE9F0414F1E00EBC701044695
:101EC000D1E9000115461E4637F006020DD02A461C
:101ED000334601F0A9F97F1E04EBC703D3E90023C1
:101EE00000F00CFF37F00602F1D1022F25D0042FAD
:101EF00013D0062F18BFBDE8F0812A46334601F003
:101F000093F9D4E90A2300F0F9FE2A46334601F09A
:101F10008BF9D4E9082300F0F1FE2A46334601F09C
:101F200083F9D4E9062300F0E9FE2A46334601F09E
:101F30007BF9D4E9042300F0E1FE2A46334601F0A0
:101F400073F9D4E9022300F0D9FE2A46334601F0A2
:101F50006BF9D4E90023BDE8F04100F0CFBE0122C7
:101F600001F0BEBB40F2013200204FF0E04101F031
:101F7000B7BB0000024A0020110701F0B1BB00000E
:101F800001FDFFFF00BF704710B501201149086037
:101F9000C82000F045F800200F49C1F89401C8207E
:101FA00000F03EF801200B490860C82000F038F826
:101FB00000200949C1F89401C82000F031F801203F
:101FC00004490860C82000F02BF800200249C1F83D
:101FD000940110BD948121420080214210B56FF020
:101FE0000400FFF765FD0A4800680A49B0FBF1F0FC
:101FF000094908700846007800EB4001C1EBC010A9
:102000004FF6FF7101EAC0000449088010BD0000CE
:102010005003002000127A00700300207203002099
:102020000146114A12884A434FF0E0235A610022C8
:102030009A611A46126942F001021A6100BF4FF01C
:10204000E022106900F001021AB100F48032002A87
:10205000F5D04FF0E022126922F001024FF0E023A8
:102060001A6100229A617047720300200146114AEA
:1020700012784A434FF0E0235A6100229A611A46CF
:10208000126942F001021A6100BF4FF0E0221069AC
:1020900000F001021AB100F48032002AF5D04FF0AE
:1020A000E022126922F001024FF0E0231A610022BF
:1020B0009A617047700300202DE9F04D894BCE0FD7
:1020C00021F0004784B005460C469F4230D3864835
:1020D000874211D3C7F31300284305D004B0284624
:1020E000BDE8F04DFFF73BBF002E1ABF00200146B0
:1020F000284604B0BDE8F08D7C4A284601F092F9EC
:1021000007D20220FEF754F904B0BDE8F04DFFF706
:1021100029BF774A774B2846214601F049F807D274
:102120000220FEF745F904B0BDE8F04DFFF722BFED
:102130007148B84248D27148874215D270487844F5
:1021400000EBC6002146D0E90023284601F0ACF997
:10215000CDE900016B48784400EBC600D0E900AB44
:10216000C6F10100861B26E0674A684B28462146D7
:1021700001F05AF8664A7A4402EBC603D3E9002319
:1021800000F0BCFD00F0CEFF064600F0FAFF074667
:102190008846604A604B01F047F82A46234601F022
:1021A00077F9CDE900015D4A5D4B3846414601F0C3
:1021B0003BF882468B46DDE9000152465B4601F062
:1021C00073F905460C4618E05648874214D2564A21
:1021D000564B2846214600F091FD554E00223346CD
:1021E00001F020F908D204B0334628462146BDE864
:1021F000F04D002200F082BD00262A4623461046FC
:10220000194601F011F8804602464A480F460B462F
:1022100005217844FFF74EFE42463B4601F004F8A4
:102220002A46234601F034F907468846E6B30246BB
:102230000B4600204FF0804101F036F9CDE9020154
:102240003A4643462846214600F0EEFFDDE90223E8
:1022500000F010FE52465B4601F01AF9DDE900235A
:1022600001F022F90022324B01F012F96FF47F7273
:102270009642A2BF01EB065104B0BDE8F08D4FF0CD
:102280007A5202EB065211442B4A01F029FA044615
:102290000D46FFF7FBFD042808BFFFF76BFE204645
:1022A00004B02946BDE8F08DFFE700224FF08043DF
:1022B00001F0FAF882460E463A4643462846214641
:1022C00000F0B2FF5246334600F0D4FD2A462346C2
:1022D00001F0EAF804B00022BDE8F04D144B01F023
:1022E000D7B80000422E86400000F07FEF39FAFE9A
:1022F00051302DD5104987C0422ED63FB2A2F03FB3
:10230000FE2D0000F62D0000FE822B654715F73FDD
:10231000B62D00000000E0FE422EE63F763C793507
:10232000EF39EA3D0000303E9C7500883CE4377E82
:102330000000F03F4A2D000018FCFFFF1CB5EAE149
:102340000120FA4908606420FFF76AFE0020F8497E
:10235000C1F894014FF6FF70FEF7B8FCF5A0182104
:102360000B46DC22CDE9001000211420FFF7B0F865
:102370004FF47A70FFF754FE00BFFFF783FA401C5A
:102380000028FAD0FFF77EFA00283FDBFFF77AFA41
:1023900009283BDCFFF776FAE94908600120E349A8
:1023A0000860C820FFF73CFE0020E149C1F8940115
:1023B0004FF44870FFF734FE00BFFFF763FA401C8C
:1023C0000028FAD01AE0FFF75DFADE4908604FF402
:1023D000FA70FFF725FEDB480068D94909680A2230
:1023E00002FB0100D84908600120D0490860C820DC
:1023F000FFF716FE0020CE49C1F89401FFF742FA1C
:10240000002803DBFFF73EFA0928DCDD182006234D
:102410000090CD48182102688C20FFF70FF800BF0C
:10242000FFF730FA401C0028FAD0FFF72BFA0E28ED
:102430000AD10120BD490860C820FFF7F1FD002046
:10244000BB49C1F8940166E1FFF71CFA0B280AD1D9
:102450000120B6490860C820FFF7E2FD0020B4491A
:10246000C1F8940158E1FFF70DFA0F287DD1012042
:10247000AE490860C820FFF7D3FD0020AC49C1F881
:102480009401B2490860B2490860B249086033E07B
:102490000220FEF76EF842F2107190FBF1F1AE48A7
:1024A000AC4A126840F822100220FEF788F842F287
:1024B0001071B0FBF1F0A949A64A126841F8220058
:1024C000A548A449096850F82100A04909680844B2
:1024D0009E490860A1489F49096850F821009C491D
:1024E000096808449A4908600520FFF799FD994852
:1024F0000068401C9749086096480068C828C7DBF8
:1025000092480068C82190FBF1F095490860904816
:102510000068C82190FBF1F092490860904800687B
:102520009149894A126841F822008E4801688F4813
:10253000854A126840F82210C820FFF771FD182064
:102540000F2300908748482102681420FEF776FF89
:10255000C820FFF765FD86A018210B46DC22CDE9D7
:10256000001060211420FEF7B3FF00BFFFF78AF9C7
:10257000401C0028FAD0FFF785F90C287ED10120F5
:102580006A490860C820FFF74BFD00206849C1F880
:1025900094014FF6FF70FEF799FB76A018210B46C9
:1025A000DC22CDE9001000211420FEF791FF00206D
:1025B00073490860A3E0C820FFF732FD1820062306
:1025C00000906F48182102688C20FEF737FF00BF8B
:1025D000FFF758F9401C0028FAD006E0FFF752F93F
:1025E0000B2802D0012067490860FFF74BF90D283E
:1025F000F4D16448006800B186E0C820FFF710FD00
:1026000001204A490860C820FFF70AFD0020484918
:10261000C1F894014D4908604D4908604D49086072
:1026200035E00220FDF7A5FF42F2107190FBF1F1B9
:102630004948484A126840F822100220FDF7BFFFBF
:1026400042F21071B0FBF1F04449424A126841F87D
:10265000220041483F49096850F821003B49096878
:1026600008443A4908603D483A49096850F8210051
:102670003749096808443649086000E045E0082009
:10268000FFF7CEFC33480068401C324908603148EF
:102690000068C828C5DB2D480068C82190FBF1F010
:1026A0002F4908602A480068C82190FBF1F02D49A5
:1026B00008602B4801682C48314A126840F8221003
:1026C0002848016829482E4A126840F8221018202C
:1026D0000F2300902348302102681420FEF7AEFE3D
:1026E00023A018210B46DC22CDE900106021142024
:1026F000FEF7EEFE22480068401C21490860204891
:10270000006864287FF757AF00BFFFF7BBF80B28BE
:1027100000D101E000BF13E600BF4FF6FF70FEF7E7
:10272000D5FA0020174908601CBD000094812142A1
:102730000080214220202020204669783A000000B5
:102740004003002044030020480300203003002001
:10275000340300203C03002088030020A80600204A
:10276000280300202C0300200000002094010020FA
:102770004F4B00004175746F204669783A000000A5
:102780004C0300203803002000BF054A128802F0E5
:102790004002002AF9D0C2B2014B1B1D1A807047BB
:1027A0000038014070B5E6B004464FF4CA7101A884
:1027B000FDF7CEFD42F20F75002601201649086094
:1027C00022E01649144A126851F82210601A0028B3
:1027D00001DB014600E0414201AA0F4B1B6842F8B1
:1027E000231001A80C49096850F82100A84206DA14
:1027F00001A80949096850F82150074806680648A9
:102800000068401C04490860034800686528D8DB5C
:10281000304666B070BD00003C03002094010020EB
:102820002DE9FF5F04460D460022144B2046294641
:1028300000F0F8FD03D2002004B0BDE8F09F104A7C
:10284000104B2046294600F023FE80460E4A0F4BCF
:1028500000F010FB0646FFF72FFC0D4A0D4BCDE9AB
:10286000000100F021FE824600220B4B00F046FAE8
:10287000CDE9020100F056FCDEE700000040BF4059
:102880001DACFF7398CA7540D0B359F5B9C56BC07C
:10289000DFC325C79DD2C93F0000E03F2DE9FF5FA0
:1028A00004460D460022144B2046294600F0BAFD8E
:1028B00003D2002004B0BDE8F09F104A104B204620
:1028C000294600F0E5FD80460E4A0F4B00F0D2FA93
:1028D0000646FFF7F1FB0D4A0D4BCDE9000100F074
:1028E000E3FD824600220B4B00F008FACDE902011D
:1028F00000F018FCDEE700000040BF4061376C5B71
:10290000142A8EC0FD6A0E10CC8E7BC0A0A696AD98
:10291000F545C63F0000E03F1CB50020D3490860E4
:102920001BE0D2480068A0F2DC50D149CF4A1268BF
:1029300041F82200CD490968A1F2DC5000F021FCE9
:102940000446FFF7ABFFCB49C84A126841F82200A2
:10295000C6480068401CC5490860C448006840F685
:10296000B8318842DDDB0020C049086017E0BF486D
:102970000168C148BD4A126840F82210BB4800688F
:1029800000F0FFFB0446FFF74BFFBC49B74A126853
:1029900041F82200B5480068401CB4490860B348BB
:1029A0000068B0F5FA6FE2DBFFF718FB4FF4A060A8
:1029B000FEF742FEFEF7DEFD4FF4E130FFF7F4F8DC
:1029C000FEF714FAFEF72AF9FDF7B6FDFDF77AFFD8
:1029D000FEF7B4F80020AA490880AAA018210B46E7
:1029E000DC22CDE9001096211420FEF771FD4FF492
:1029F0007A70FFF715FB4FF6FF70AE23F022962199
:102A000000901420FEF7C8F92EE1FEF73BFF0A28DC
:102A10000CD11420FFF704FBFEF734FF0A2801D184
:102A2000FFF78CFC4FF6FF70FEF750F9FEF72AFF18
:102A30000446214697A0FDF70FFC0220FDF7BFFDDD
:102A400042F21071B0FBF1F041F6583188422CD9B6
:102A50004FF6FF70FEF73AF94FF478408849088046
:102A60008DA018210B46DC22CDE900109021142006
:102A7000FEF72EFDFFF788FA00208149088086A026
:102A800018210B46DC22CDE9001090211420FEF71E
:102A90001FFDFFF779FA84A018210B46DC22CDE94F
:102AA000001090211420FEF713FD0020FEF7EAF835
:102AB0000028A9D000BF4FF6FF70FEF707F90020ED
:102AC0007D4908607D4908606849086033E002205C
:102AD000FDF74FFD42F2107190FBF1F07849634A27
:102AE000126841F822000220FDF769FD42F21071E0
:102AF000B0FBF1F073495D4A126841F8220070485A
:102B00005A49096850F821006B49096808446A4924
:102B100008606C485549096850F821006749096800
:102B20000844664908600820FFF77AFA4F480068B1
:102B3000401C4E4908604D480068C828C7DB5E4805
:102B4000006800F01EFB064600225F4B00F092F981
:102B5000044600F0E7FA5D4908605848006800F054
:102B600010FB06460022584B00F084F9044600F0A2
:102B7000D9FA5749086055480068B0F52F7F0FDD36
:102B800052480068B0F5FA6F0ADA08460068B0F5F6
:102B90007A7F05DA4D480068A0F28D604B490860E5
:102BA0004A48006800F28D6048490860084601689C
:102BB00038A0FDF751FB0120464908604648D0F88F
:102BC000940180F001004549086045A018210B469A
:102BD000DC22CDE9001030211420FEF779FC18200A
:102BE0000F2300903A48482102681420FEF726FC83
:102BF0003748006841F65831884214DD26A0182174
:102C00000B46DC22CDE9001090211420FEF760FC79
:102C100018200F230022A82100901420FEF70EFC9C
:102C2000FFF7B2F916E031A018210B46DC22CDE9FE
:102C3000001090211420FEF74BFC25480068FFF798
:102C4000B1FD044618200F232246A821009014202D
:102C5000FEF7F4FB00201F4908601F48D0F89401DC
:102C600080F001001D490860CFE600003C03002011
:102C7000F00C0020D03B0020B06A0020F08900203A
:102C80006803002046444332323134205465737463
:102C90002021000025640A0053686F72745F436945
:102CA00072637569742100002020202020202020DC
:102CB00020202020202000003003002034030020AA
:102CC00088030020A8060020000069402803002097
:102CD0002C030020948121420000234294012342CE
:102CE0005369676E6E616C3A000000005061706558
:102CF000725F4E756D626572323A000010B591EAEE
:102D0000030F48BF83F0004300F1D683841A71EBB0
:102D1000030C05D2121943EB0C03001B61EB0C01F1
:102D2000DFF824E14FEA1154A4EB135C1EEA430FD1
:102D300018BF9EEA445F73D023EA0E03DCF1200E35
:102D400021EA045143F4801332D322FA0CFE10EB33
:102D50000E0023FA0CFE41EB0E01CCF1200E03FA1B
:102D60000EFE10EB0E0051F10001B1F5801FCCF109
:102D7000200E32D201EB045112FA0EF2BDE81040DF
:102D800058BF7047401C38BF5FEA420218BF704707
:102D9000002814BF20F0010041F100014FEA410377
:102DA00013F5001F38BF7047A1F1C04100F034BBDC
:102DB000012A43EB0302ACF1200CDCF11F0E32BF01
:102DC0004FF0000E23FA0CF310EB030041EB04511B
:102DD000B4EB115FD0D0A1EB045101F5801149088B
:102DE0005FEA300001EB04510ED350F1000038BF10
:102DF00012FA0EFE08D1BDE81040C9E7401C38BFEA
:102E00005FEA4202CAD1C3E7BDE810404FEA41037E
:102E100013F5001F38BF7047A1F1C04100F0FCBAA4
:102E20009EEA445F08D011EA5E0FBDE8104004BF7F
:102E300001F0004100207047BDE8104070B500F07F
:102E40009DFA00BF64FBBE3E0000E0FF02494FF068
:102E5000000000F013BC00BF0000F87F491058BF0D
:102E6000C1F140415B1058BFC3F140438B42EFF3C7
:102E7000008070472DE9C04130B4DFF8A0C23CEAC1
:102E8000111418BF3CEA131400F0EC8081EA03052A
:102E90001CEA111444EAD57418BF1CEA131500F09B
:102EA000C780A4EB05044FF0004545EAC12145EA7F
:102EB000C32341EA505143EA525304F17F749942CB
:102EC00004F500344FEAC0204FEAC22208BF904206
:102ED00000F09C804FEA13650FF24016765D4FEAD2
:102EE000134506FB05F7C7F1807706FB07F74FEAA6
:102EF000D737A7FB03687642C8F58038A7FB06CE14
:102F000038BFA8F1010807FB08E64FF0000EA6FB4A
:102F1000028CE6FB03CEDCF1000CCEF1004E38BF94
:102F2000AEF1010EA6FB0C584FF000074FF0000564
:102F3000E6FB0E87A1FB08C6A0FB07CE16EB0E062C
:102F400045F10005E1FB076515F1E04E7EBFA4F5F4
:102F500080345FEA46066D4116F1800745F10005B1
:102F60004FEA17274FEA066647EA0567A6F1DE46ED
:102F7000B6F1805F4FEA15251FD9384624F0010CC1
:102F800005EBC471BCF1FE6F01EB0C1102D8F0BC73
:102F9000BDE8008124425CBF01F5801E9EEAC47F2B
:102FA00002D4F0BCBDE80081244238D4F0BCA1F1C9
:102FB000C041BDE8004100F02FBA4FEAD22242EAF8
:102FC00043524FEAD323A7FB02864FEAD02040EAC0
:102FD000415007FB03661EEA0E0F4FEAD12105FBA5
:102FE000026658BFA6EB0056B6EB00564FEA520EEB
:102FF0004EEAC37E18EB0E0E56EB530EBDD518EB02
:1030000002085E417F1C55F10005B6E74FF48015BC
:103010004FF000074FF000064FF00008ADE7F0BC9E
:103020004FF0000001F1C04101F00041BDE8008116
:1030300011EA0C1F0CEA131500D00CE013EA0C1F68
:1030400000F025804FF00000F0BC81EA030101F0A0
:103050000041BDE80081F0BCBDE8004181EA030108
:1030600000F0DAB9F0BCBDE8004170B500F086F9B7
:10307000097EFC3E00F007B881EA03014FF0000032
:1030800001F00041704781EA030100F0C5B9F0BCCE
:10309000BDE800414FF0000021497047FFFDFBF9FA
:1030A000F7F5F4F2F0EEEDEBE9E8E6E4E3E1E0DE7B
:1030B000DDDBDAD8D7D5D4D3D1D0CFCDCCCBCAC8ED
:1030C000C7C6C5C4C2C1C0BFBEBDBCBBBAB9B8B714
:1030D000B6B5B4B3B2B1B0AFAEADACABAAA9A8A807
:1030E000A7A6A5A4A3A3A2A1A09F9F9E9D9C9C9BD5
:1030F0009A99999897979695959493939291919080
:103100008F8F8E8E8D8C8C8B8B8A89898888878710
:103110008685858484838382828181800000FF0785
:103120000000F87F4FEA41034FEA5353A3F5806351
:10313000D3F11E03C8BFD3F1210C0CDD4FF00042C8
:1031400042EAC12242EA505232FA03FC8CEAE17CA4
:10315000ACEBE1707047102BC4BF0020704703F543
:10316000787CBCF1FF3F04D06FF0004282EA21007E
:10317000704770B500F002F9499224800020704732
:10318000F2E710F0004248BF4042B0FA80F310FA74
:1031900003F10AD0C3F11D0303F580634FEA4150E8
:1031A00002EB035202EBD12170474FF00000704751
:1031B00051EA030C17D41CF5801F58BFBCF5801FC3
:1031C00000F10680994218BF704708BF90427047CF
:1031D00007D711F5801F58BF13F5801F19D49942E6
:1031E0007047894270471CF5801F08D5BCF5801FC9
:1031F000F7D58B4218BF704708BF824270474FF423
:10320000001C1CEB410F38BF1CEB430F01D28B425B
:10321000704770B500F0B2F8922449004FF00051A9
:103220004FF08053FFF71ABEDFF848C170B51CEAB3
:10323000111E1EBF1CEA13159EEA0C0F95EA0C0F17
:1032400000F06F8081EA030423EA4C134EEAD47E37
:1032500021EA4C1141F4801143F48013AE44A1FBE8
:10326000024CA0FB0365AEF17F7E361955EB0C05D1
:10327000A1FB034C4CF10003A0FB021C16EB0C0657
:10328000654153F10003094218BF46F0010613F4EB
:10329000007F0BD14FEA03314FEA0530340341EA96
:1032A000155140EA16506FF003020AE04FEAC321BD
:1032B0004FEAC520F40241EA555140EA56506FF0FA
:1032C000020202EB2E4201EB025585EACE710AD0D2
:1032D0005FEA440C18BF24F0004450F1000041F1B3
:1032E000000120EAD47040F2FE7C624500D270BD3D
:1032F000A84214BF4FF080444FF04044002E08BF56
:103300000024BEF1806FA8BFA1F1C041BDE87040AC
:1033100080F282804FF0000001F1C04101F00041D5
:1033200070479EEA0C0F0CEA131518BF95EA0C0FB4
:1033300006D04FF0000081EA030E0EF0004170BD90
:1033400000F01CF88900013E00F007B800F009B851
:103350004FEA430C5FEA5C5C08D081EA030100F0AD
:103360005BB84FEA410C5FEA5C5CF6D14FF00000BD
:10337000014970470000FF070000F87F0EF1020EC0
:103380002EF0030E5EF8046B364205D4012A43EB9F
:10339000030515F5001F12D8012841EB010C1CF59F
:1033A000001F0CD80ED14FEAD17C15F5001F0CEB95
:1033B0004C0C0CF1020C08BF4CEBD37C04E04FF03A
:1033C000080C01E04FEAD37C0CEB4C0526FA05F61D
:1033D00006F00706B6F1040C06D20EEB860CBDE82B
:1033E00070404CF0010C6047DFE80CF0090B020262
:1033F0004FF000414FF00000A1F5002170BD1946CB
:103400001046012851EB010418BFD4F5001484BF05
:10341000002001F0004170BD0808A0F500114FEA3E
:103420003101704753EA010C17D41CF5801F58BFB7
:10343000BCF5801F00F106808B4218BF704708BFA3
:103440008242704707D713F5801F58BF11F5801FC0
:1034500019D48B4270479B4270471CF5801F08D5DA
:10346000BCF5801FF7D5994218BF704708BF90423E
:1034700070474FF4001C1CEB430F38BF1CEB410F8F
:1034800001D2994270470FB40CBC03BCFFF7C1BE18
:1034900091EA030F10B581F000413FF537AC83F09E
:1034A000004300F009B8000010B591EA030F48BFCF
:1034B00083F000433FF52AAC841A71EB030C07D26A
:1034C00012198CF0004C43EB0C03001B61EB0C0158
:1034D000DFF8A4E14FEA1154A4EB135C1EEA430F9A
:1034E00018BF9EEA445F00F0B08023EA6E035242A8
:1034F00021EA0451C3EB6E0338BF5B1EDCF1200EE2
:1035000025D322FA0CFE10EB0E0043FA0CFE41EB21
:103510000E01CCF1200E03FA0EFE10EB0E0051F15D
:103520000001CCF1200E29D412FA0EF201EB045165
:10353000BDE8104058BF7047401C1CBFB2F1004F9F
:10354000704700280CBF491C20F00100704712EBA7
:10355000020E43EB030218BF4FF0010E4EEA420287
:10356000ACF1200CDCF11E0E54D943FA0CFE10EB2A
:103570000E0051F1FF31CCF11E0ED5D50EF1010E2A
:1035800012FA0EFE404141EB010101EB445C5FEA9F
:103590005C5C10D910EBDE7001EB045138BFBEF15A
:1035A000004FBDE8104018BF704700280CBF491CF1
:1035B00020F00100704730D24FEAD42C11F50011F1
:1035C00024F400641BD0B1FA81F20B3AA41AA41EB1
:1035D000D2F12003914030FA03F31943904001EBFC
:1035E000CC71002C01EB0451BDE81040A8BF70471E
:1035F00001F1C0414FF0000001F000417047B0FA06
:1036000080F310FA03F100D110BDE41A173C48050D
:10361000C90AE4E701EB045110BD491001EB045164
:10362000BDE810404FEA300002E04FF00001704763
:103630004A0008BF0042F8D0B2F5001F28BF70470B
:1036400001F000414FF0000070479EEA445F07D050
:1036500011EA5E0FBDE8104004BF00210020704752
:10366000BDE8104070B5FFF789FE00BF40DFF63EB1
:1036700083F00041104670470000E0FF0CF00F039C
:10368000092B08BF082000F059800A2B0BD0082B0B
:1036900018BF704708BF1CF0400F0AD04FF0000061
:1036A0004FF0000170471CF0400F18BF4FF0004072
:1036B00070471CF0100F08D020F0704300F07F42DC
:1036C00042EAD3014FEA4370704700F0604021F0B6
:1036D0007F4242EA000201F07F4040EA7270704788
:1036E0004FF0FF0C4CF4E06C1CEA11531CBF9CEA39
:1036F000030C9445C2BFDA4201EB02517047002B24
:103700000DD0BCF1000F0FD0002A01F00041A4BF82
:1037100041F0E04141F07F614FF00000704701F05F
:1037200000414FF00000704750EA01334FF09B0C0E
:1037300018BF4CF0806C7FF489AB70471CF4801F7D
:1037400011D01CF4E02F03D06FEACC314900704750
:103750004FF04050EFF3008222F0704242EA000244
:1037600082F3008870474FF00000704700000000AF
:103770000000000000000000000000003F400000CA
:103780000000000000003000400030004000000059
:1037900009000BC03D000BC03D00090018C02440CB
:1037A0007FE0224031800000180024C01B000D8003
:1037B0003240018003801C4027401C8007400040AD
:1037C0001000600000000000000000000000000089
:1037D00000001F80204040200000402020401F802B
:1037E00000000000090006001F800600090000001C
:1037F000040004003F80040004000000001000608A
:1038000000000000000000000400040004000400A8
:103810000400000000000040000000000000000064
:10382000002001C006003800400000001F8020403A
:10383000204020401F800000000010403FC000409A
:103840000000000018C02140224024401840000021
:1038500010802040244024401B80000002000D0006
:1038600011003FC0014000003C802440244024401F
:10387000238000001F802440244034400380000047
:103880003000200027C03800200000001B802440AA
:10389000244024401B8000001C0022C02240224003
:1038A0001F80000000000000084000000000000031
:1038B00000000000046000000000000000000400A0
:1038C0000A00110020804040090009000900090099
:1038D0000900000000004040208011000A000400A0
:1038E0001800200023402400180000001F80204002
:1038F000274029401F400000004007C039000F004A
:1039000001C0004020403FC0244024401B800000F4
:103910001F802040204020403080000020403FC0D9
:10392000204020401F80000020403FC024402E4007
:1039300030C0000020403FC024402E003000000076
:103940000F001080204022403380020020403FC002
:10395000040004003FC02040204020403FC02040E1
:10396000204000000060202020203FC020002000D8
:1039700020403FC024400B0030C0204020403FC0CA
:1039800020400040004000C03FC03C0003C03C005D
:103990003FC0000020403FC00C4023003FC020003B
:1039A0001F802040204020401F80000020403FC05A
:1039B00024402400180000001F802140214020E006
:1039C0001FA0000020403FC02440260019C0004036
:1039D00018C02440244022403180000030002040A4
:1039E0003FC020403000000020003F8000400040E9
:1039F0003F80200020003E0001C00700380020006A
:103A0000380007C03C0007C038000000204039C023
:103A1000060039C0204000002000384007C0384070
:103A200020000000304021C02640384020C0000067
:103A3000000000007FE040204020000000007000F7
:103A40000C000380004000000000402040207FE088
:103A500000000000000020004000200000000000E6
:103A600000100010001000100010001000000000F6
:103A700040000000000000000000028005400540FA
:103A800003C0004020003FC0044004400380000009
:103A90000000038004400440064000000000038052
:103AA000044024403FC00040000003800540054022
:103AB00003400000000004401FC0244024402000B8
:103AC000000002E0055005500650042020403FC091
:103AD0000440040003C000400000044027C0004030
:103AE0000000000000100010041027E0000000009B
:103AF00020403FC00140070004C004402040204057
:103B00003FC000400040000007C0040007C00400A0
:103B100003C00000044007C00440040003C000408C
:103B2000000003800440044003800000041007F0FC
:103B3000045004400380000000000380044004504F
:103B400007F00010044007C0024004000400000019
:103B5000000006400540054004C0000000000400CD
:103B60001F80044000400000040007800040044023
:103B700007C000400400070004C0018006000400E4
:103B8000060001C0070001C006000000044006C096
:103B9000010006C0044000000410071004E001808A
:103BA000060004000000044005C006400440000078
:103BB0000000000004007BE0402000000000000046
:103BC0000000FFF000000000000040207BE0040047
:103BD0000000000040008000400020002000400065
:103BE00000000000000000000000000000000000D5
:103BF0000000000000001FCC000C000000000000CE
:103C00000000080030006000080030006000000084
:103C1000022003FC1E20022003FC1E2002200000C4
:103C200000000E1811043FFF10840C780000000003
:103C30000F0010840F3800C0077818840078000047
:103C400000780F8410C411240E9800E4008400084A
:103C50000800680070000000000000000000000084
:103C600000000000000007E01818200440020000D7
:103C7000000040022004181807E0000000000000C7
:103C80000240024001800FF001800240024000002B
:103C90000080008000800FF800800080008000001D
:103CA0000001000D000E00000000000000000000F8
:103CB0000000008000800080008000800080008084
:103CC0000000000C000C00000000000000000000DC
:103CD00000000006001800600180060018002000A7
:103CE000000007F0080810041004080807F000009E
:103CF0000000080408041FFC000400040000000089
:103D000000000E0C10141024104411840E0C00003E
:103D100000000C1810041104110412880C7000002B
:103D2000000000E00320042408241FFC00240000FD
:103D300000001F98108411041104108810700000F6
:103D4000000007F0088811041104188800700000B2
:103D500000001C00100010FC13001C0010000000EC
:103D600000000E3811441084108411440E380000F5
:103D700000000700088C10441044088807F0000079
:103D8000000000000000030C030C00000000000015
:103D9000000000000001010600000000000000001B
:103DA00000000080014002200410080810040000F8
:103DB0000220022002200220022002200220000015
:103DC00000001004080804100220014000800000D8
:103DD00000000E001200100C106C10800F0000008C
:103DE00003E00C1813E4142417C4082807D00000BB
:103DF0000004003C03C41C40074000E4001C000415
:103E000010041FFC1104110411040E88007000003E
:103E100003E00C1810041004100410081C1000001B
:103E200010041FFC100410041004080807F0000020
:103E300010041FFC1104110417C41004081800001A
:103E400010041FFC1104110017C01000080000002E
:103E500003E00C181004100410441C78004000000B
:103E600010041FFC10840080008010841FFC1004CC
:103E70000000100410041FFC1004100400000000D7
:103E800000030001100110011FFE100010000000CF
:103E900010041FFC110403801464181C100400009B
:103EA00010041FFC1004000400040004000C0000B7
:103EB00010041FFC1F0000FC1F001FFC100400006A
:103EC00010041FFC0C04030000E010181FFC10007D
:103ED00007F00808100410041004080807F0000098
:103EE00010041FFC10841080108010800F00000050
:103EF00007F0081810241024101C080A07F200000C
:103F000010041FFC1104110011C011300E0C00042C
:103F100000000E1C11041084108410441C38000092
:103F20001800100010041FFC1004100018000000FE
:103F300010001FF810040004000410041FF8100003
:103F400010001E0011E0001C007013801C00100007
:103F50001FC0103C00E01F0000E0103C1FC000002C
:103F60001004180C163401C001C01634180C1004CB
:103F700010001C00130400FC13041C0010000000BF
:103F80000804101C1064108413041C041018000092
:103F90000000000000007FFE4002400240020000DE
:103FA000000030000C0003800060001C00030000D3
:103FB00000004002400240027FFE000000000000BE
:103FC00000000000200040004000400020000000F1
:103FD00000010001000100010001000100010001D9
:103FE0000000400040002000000000000000000031
:103FF00000000098012401440144014400FC000435
:1040000010001FFC008801040104008800700000FB
:104010000000007000880104010401040088000011
:104020000000007000880104010411081FFC000456
:10403000000000F8014401440144014400C80000AC
:104040000000010401040FFC110411041100180008
:10405000000000D601290129012901C9010600003B
:1040600010041FFC008401000100010400FC000496
:1040700000000104190419FC000400040000000001
:104080000000000300010101190119FE00000000F9
:1040900010041FFC0024004001B4010C01040000C6
:1040A0000000100410041FFC0004000400000000C5
:1040B000010401FC0104010001FC0104010000FCF9
:1040C000010401FC008401000100010400FC000463
:1040D000000000F8010401040104010400F80000DC
:1040E000010101FF00850104010400880070000047
:1040F00000000070008801040104010501FF0001B7
:104100000104010401FC008401040100018000009D
:10411000000000CC012401240124012401980000A6
:1041200000000100010007F8010401040000000084
:10413000010001F8000400040004010801FC00046F
:10414000010001800170000C00100160018001007D
:1041500001F0010C003001C00030010C01F0010041
:1041600000000104018C00740170018C0104000046
:10417000010101810171000E001801600180010040
:1041800000000184010C013401440184010C000091
:10419000000000000000000001003EFC4002400260
:1041A0000000000000000000FFFF00000000000011
:1041B0000000400240023EFC010000000000000040
:1041C00000006000800080004000400020002000CF
:1041D00000000000000000000000000000000000DF
:1041E00000000000000000000000000000000000CF
:1041F00000000000000000000000000000000000BF
:104200000000000F80380FFE380F803800000000DB
:10421000000000000000000000000000000001009D
:10422000000600000C00003800003100000600000D
:104230000C0000380000300000000000000000000A
:1042400061800067F807F98000618000618000618B
:10425000800061800067F807F9800061800000003D
:1042600000000000000001C0E003E0F00630080498
:1042700018081FFFFE040E080787F00381E0000006
:104280000000000001F000060C00040408060C7099
:1042900001F9C0000E00003BE000EC18070808041C
:1042A0000C180003E00000000001E00007F003F834
:1042B00018041C0804170807E1D003C0E00023B06D
:1042C000003C080020080000100000000000000171
:1042D00000003100003200001C000000000000005F
:1042E00000000000000000000000000000000000CE
:1042F00000000000000000000000000000000000BE
:104300007F0001FFC00780F00C001810000420009F
:10431000020000000000002000021000040C001841
:104320000780F001FFC0007F0000000000000000D7
:1043300000000000000000000000000042000066D5
:1043400000006600003C0000180003FFC0001800D9
:10435000003C000066000066000042000000000013
:10436000080000080000080000080000080001FF25
:10437000C000080000080000080000080000080055
:1043800000000000000100003100003200001C00AD
:10439000000000000000000000000000000000001D
:1043A00000000000000000000800000800000800F5
:1043B00000080000080000080000080000080000D5
:1043C00008000008000000000000000000000000DD
:1043D0003800003800003800000000000000000035
:1043E00000000000000000000000000000000000CD
:1043F000000600001C000070000180000E00003864
:104400000000C0000700001C000030000000000099
:10441000000000007F8001FFE003807006001804A8
:10442000000804000806001803807001FFE0007F08
:1044300080000000000000000000010008010008EA
:1044400001000803FFF807FFF8000008000008005B
:10445000000800000000000000000001C03802C099
:1044600058040098040118040218040418061C18C3
:1044700003F81801E0F8000000000000000000014F
:10448000C0E003C0F0040008040808040808061887
:104490000803F41801E7F00001E00000000000004C
:1044A000000000000300000D00001100006100008A
:1044B000810803010807FFF80FFFF8000108000159
:1044C000080000000000000000E007FCD00608081B
:1044D000061008061008061008061838060FF00621
:1044E00007C0000000000000000000003F8001FF46
:1044F000E0038430020818041008041008041008AF
:10450000071810030FF00007C000000000000000B3
:10451000000003C0000700000600000600F80607C0
:10452000F806180006E00007000006000000000082
:1045300000000001E1E003F7F0063410041808045D
:104540001808040C08040C0806161803F3F001C13F
:10455000E000000000000000F80003FC3003063813
:104560000402080402080402080404100308F0010D
:10457000FFC0007F000000000000000000000000FD
:104580000000000000000000703800703800703833
:10459000000000000000000000000000000000001B
:1045A000000000000000000000000000301A003091
:1045B0001C000000000000000000000000000000DF
:1045C00000000000000000080000140000220000AD
:1045D000410000808001004002002004001008001B
:1045E0000800000000000000210000210000210060
:1045F0000021000021000021000021000021000016
:104600002100002100000000000000000000080060
:1046100008040010020020010040008080004100DA
:104620000022000014000008000000000000000349
:10463000C00004C000040000080038080F38080853
:10464000380810000C300007E00003C00000000034
:10465000000000003F8000FFE0038070020F1006A2
:10466000708804C088048308047F8802C090030116
:104670002000FE400000080000180001F8003E087D
:1046800001C20007020007E20000FE00001FC80090
:1046900001F800003800000804000807FFF807FFD1
:1046A000F80408080408080408080408080618089C
:1046B00003F41801E7F00001E00000000000000032
:1046C0003F8001FFE003807002001804000804002E
:1046D000080400080400100600200780C000000045
:1046E00004000807FFF807FFF804000804000804A6
:1046F000000804001802001003807001FFE0007F32
:104700008000000004000807FFF807FFF80408080D
:10471000040808040808040808043E080400080601
:10472000001801006000000004000807FFF807FF00
:10473000F8040808040800040800040800043E0007
:1047400006000006000001800000000000000000DC
:104750003F8001FFE0038070060018040008040297
:10476000080402080203F00783F0000200000200C0
:1047700004000807FFF807FFF80408080008000015
:10478000080000080000080004080807FFF807FFF9
:10479000F8040008000000000000040008040008FD
:1047A00004000807FFF807FFF804000804000804E5
:1047B00000080000000000000000000000060000EB
:1047C0000700000104000104000104000307FFFECC
:1047D00007FFFC04000004000004000004000807B8
:1047E000FFF807FFF8040C08001800003E0004C79B
:1047F000800503C80600F80400380400180000080B
:1048000004000807FFF807FFF8040008000008008C
:104810000008000008000008000008000018000060
:104820006000000004000807FFF807800807FC008C
:10483000007FC00003F80007C00078000780080769
:10484000FFF807FFF804000804000807FFF8070056
:104850000803C00000E000003800001E0000070050
:104860000001C00400F007FFF80400000000000091
:104870007F8001FFE0038070060018040008040038
:104880000806001803003001FFE0007F80000000F0
:1048900004000807FFF807FFF804040804040004F4
:1048A0000400040400040400060C0003F80001F0F6
:1048B00000000000000000007F8001FFE003807026
:1048C0000600880400880400C806003C03003E017E
:1048D000FFE6007F8400000004000807FFF807FFE0
:1048E000F8040808040800040C00040F00040BC0BE
:1048F0000610F003F03801E0080000080000000195
:10490000E0F803F030063010041808041808040C0E
:1049100008040C080206180207F00781E0000000F6
:1049200001800006000004000004000004000807E5
:10493000FFF807FFF8040008040000040000060068
:104940000001800004000007FFE007FFF0040018EA
:10495000000008000008000008000008000008042B
:10496000001007FFE004000004000006000007E05C
:104970000007FE00041FE00001F80000380001E01D
:10498000043E0007C0000600000400000400000709
:10499000E00007FFC0041FF80007C007F80007FF8A
:1049A00080043FF80007C004F8000700000400007E
:1049B00000000004000806001807C07805F1C800D0
:1049C0003E00001F800463E80780F806001804001A
:1049D0000800000004000006000007800007E0084F
:1049E000047C08001FF80007F800180804E0080716
:1049F000000006000004000000000001000806009E
:104A0000380400F80403E8040F08047C0805F008E3
:104A100007C0080700180400600000000000000044
:104A200000000000000000000000003FFFFE20002A
:104A300002200002200002200002200002000000EC
:104A400000000000000008000007000000C0000097
:104A500038000006000001C000003000000E000019
:104A60000100000000000000000020000220000201
:104A70002000022000022000023FFFFE0000000094
:104A80000000000000000000000000000000000026
:104A9000000800001000003000002000003000007E
:104AA00010000008000000000000000000000100ED
:104AB00000010000010000010000010000010000F1
:104AC00001000001000001000001000001000001E0
:104AD0000000000000000000002000002000001086
:104AE00000001000000000000000000000000000B6
:104AF000000000000000000000F00019F8001B1882
:104B0000002208002608002408002410003FF800B6
:104B10001FF800000800001800000004000007FF54
:104B2000F80FFFF0001818001008002008002008F7
:104B3000003018001FF0000FC0000000000000004F
:104B400007C0001FF00018300020080020080020D7
:104B500008003C08001C100000600000000000007D
:104B60000000000007C0001FF000381800200800F7
:104B7000200800200804101007FFF80FFFF00000C5
:104B8000100000000000000000000007C0001FF03F
:104B9000001230002218002208002208003208000B
:104BA0001E10000E20000000000000002000002069
:104BB0000800200801FFF803FFF806200804200879
:104BC000042008072000030000000000000000008F
:104BD000000E000E6E001FF30031B10020B1002066
:104BE000B1003191001F13002E1E00200E00300076
:104BF00000000004000807FFF80FFFF8001008008D
:104C00002000002000002008003FF8001FF80000EE
:104C1000080000000000000000000020080020083C
:104C2000002008063FF8063FF800000800000800D2
:104C3000000800000000000000000000000000006C
:104C400003000003002001002001002003063FFEB6
:104C5000063FFC000000000000000000000000040F
:104C6000000807FFF80FFFF8000188000300002F7D
:104C7000C00038F8002038002008000008000000BC
:104C800000000000000004000804000804000807F9
:104C9000FFF80FFFF80000080000080000080000FF
:104CA00000000000002008003FF8003FF800100856
:104CB000002000003FF8003FF8001008002000002E
:104CC0003FF8003FF8000008000000002008003F07
:104CD000F8003FF800100800100000200000200835
:104CE000003FF8001FF8000008000000000000006E
:104CF00007C0000FF0001830003008002008002026
:104D000008003008001830000FF00007C000000055
:104D1000000000002001003FFF003FFF00101100D5
:104D20002009002008002008003038001FF0000F84
:104D3000C00000000000000007C0001FF00038188D
:104D4000002008002008002009001011001FFF00AB
:104D50003FFF0000010000000020080020080020A4
:104D600008003FF8003FF80008080010080020087D
:104D700000200000300000300000000000000000B3
:104D80000000000C78001E180033080023080021E2
:104D9000080021880021980030F0003860000000F1
:104DA00000000000200000200000200000FFF003B1
:104DB000FFF8002008002008002008000030000054
:104DC00000000000000000002000003FF0007FF81D
:104DD000000018000008000008002010003FF80044
:104DE0007FF00000100000000000000020000030F4
:104DF00000003C00003F800023F0000078000070BD
:104E0000002380003C000030000020000020000053
:104E10003C00003FE00023F80000E0002700003ED7
:104E200000003FE00021F80001E0003E000020000B
:104E3000000000002008002008003838003E68000C
:104E400027800003C8002CF8003838002018002004
:104E500008000000000000002000003003003C01BA
:104E6000003F830023EC000070002380003C000022
:104E700020000020000000000000000000000038BA
:104E8000080020380020F80023E8002F88003E08A2
:104E9000003808002018000070000000000000002A
:104EA00000000000000000000000000008000014E6
:104EB000001FF7FC30000620000200000000000088
:104EC00000000000000000000000000000000000E2
:104ED0000000FFFFFF0000000000000000000000D5
:104EE000000000000000000000002000023000066A
:104EF0001FF7FC0014000008000000000000000084
:104F00000000000000000000000000180000600029
:104F100000400000400000200000100000080000D9
:104F20000400000400000C0000100000000000005D
:104F3000000000000000E03F000000000000E0BFB3
:104F40000000E0FE422EE63F0000E0FE422EE6BFFB
:104F5000763C7935EF39EA3D763C7935EF39EABD73
:104F60003E5555555555C53F93BDBE166CC166BFE0
:104F70002CDE25AF6A56113FF16BD2C541BDBBBED9
:104F8000D0A4BE726937663EA84F0008000000201A
:104F9000880300006C01000880500008880300208E
:104FA00018AC0000C8010008411B39030422041A90
:104FB0003204232F051A84041ACE04230A061A6227
:104FC000041A95041AB1041AE604230D071A2804DA
:104FD0001A4E041A69041A91041AA8041ABF041A72
:104FE000D1041AE4041AF9042308081A1C041A2C20
:104FF000041A3A041A48041A55041A64041A72046A
:105000001A7C0401FF011D23A701231C021A71044D
:105010001AA8041AD4041AFC042319031A3A041A0D
:1050200055041A6C041A83041A96041AA5041AB8B3
:10503000041AC9041AD8041AE6041AF0041AFC0463
:105040002307041A12041A1B041A23041A2B041A25
:1050500034041A3D041A42041A49041A51041A5914
:105060000401FF014284A24A04600901020304060C
:10507000070809C3FFFF291C692005000204060870
:0400000508000215D8
:00000001FF
